:020000041000EA
:1000000000B5324B212058609868022188439860DF
:10001000D860186158612E4B002199600221596106
:100020000121F02299502B49196001219960352056
:1000300000F044F80222904214D00621196600F024
:1000400034F8196E01211966002018661A6600F04E
:100050002CF8196E196E196E052000F02FF8012189
:100060000842F9D1002199601B49196000215960AB
:100070001A491B48016001219960EB211966A021F2
:10008000196600F012F800219960164914480160C1
:100090000121996001BC002800D000471248134993
:1000A000086003C880F30888084703B5996A0420EC
:1000B0000142FBD001200142F8D103BD02B5186610
:1000C0001866FFF7F2FF186E186E02BD00000240BE
:1000D000000000180000070000035F00212200005C
:1000E000F4000018222000A00001001008ED00E03C
:1000F00000000000000000000000000074B24E7A12
:1001000000200420F7010010C3010010C5010010F9
:10011000C1010010C1010010C1010010C101001097
:10012000C1010010C1010010C1010010C701001081
:10013000C1010010C1010010C9010010CB01001065
:10014000CD010010CD010010CD010010CD01001037
:10015000CD010010CD010010CD010010CD01001027
:10016000CD010010CD010010CD010010CD01001017
:10017000CD010010CD010010CD010010CD01001007
:10018000CD010010CD010010CD010010CD010010F7
:10019000CD010010CD010010CD010010CD010010E7
:1001A000CD010010CD010010CD010010CD010010D7
:1001B000CD010010CD010010CD010010CD010010C7
:1001C00000BE00BE00BE00BE00BE00BE00F04BF888
:1001D000103800BEF2EB887128560010445600100B
:1001E0003402001090A31AE700202149086006C8D5
:1001F00081F3088810471F48006800282FD10DA4FC
:100200000ECC002902D000F012F8F9E71A491B4A77
:10021000002000E001C19142FCD1194988471949E9
:1002200088471949884700BEFDE701C901C29A42C3
:10023000FBD3704744560010C0000020E4060020A5
:10024000685C00100000042000000420685C0010BE
:1002500000100420001004200000000070470B482C
:1002600003F0A0F80047EFF30580C0B2704700002C
:1002700008ED00E0000000D0E8060020D80A0020C9
:10028000391D001025090010F91C001057560000F8
:1002900006005250ABB36053D855001006005250C0
:1002A000861C0302E8550010060052505422A29DFD
:1002B000F055001005005250DE65F468685C0010CF
:1002C000F8B5C046044B10B5002B03D003490448D1
:1002D00000E000BF10BDC0460000000094080020F0
:1002E000B04700107047000010B5054B1A68012395
:1002F0009340D0221206936100F0DCFA10BDC04694
:10030000B447001010B5054B1A6801239340D02262
:100310001206536100F0CEFA10BDC046B44700107B
:1003200070B500F0D5FA012000F0F8FA074B1B6811
:1003300001249C40D0252D06AC610A2000F0EEFA85
:100340006C61322000F0EAFA70BDC046B047001080
:1003500070B5F64B1D68280000F038FB012423001F
:10036000AB40D0252D066B626B61F14B1E683000EF
:1003700000F02CFBB4406C62FFF7D2FF1020FFF7B7
:10038000B3FF0020FFF7BEFF0020FFF7BBFF1120E7
:10039000FFF7AAFF0020FFF7B5FF0020FFF7B2FF2D
:1003A0001220FFF7A1FF0020FFF7ACFF0020FFF7AE
:1003B000A9FF1320FFF798FF0020FFF7A3FF0020FD
:1003C000FFF7A0FF1420FFF78FFF0020FFF79AFF31
:1003D0000020FFF797FF00F086FA282000F09EFA31
:1003E00000F076FA1120FFF77FFF0020FFF78AFF69
:1003F0001820FFF787FF1220FFF776FF6120FFF735
:1004000081FF2120FFF77EFF1320FFF76DFF002003
:10041000FFF778FF6F20FFF775FF1420FFF764FFE9
:100420004920FFF76FFF5F20FFF76CFF1020FFF7F9
:100430005BFF0820FFF766FF0020FFF763FF00F077
:1004400052FA0A2000F06AFA00F042FA1120FFF78F
:100450004BFF1020FFF756FF3B20FFF753FF00F044
:1004600042FA322000F05AFA00F032FA0120FFF787
:100470003BFF0120FFF746FF1C20FFF743FF022050
:10048000FFF732FF0120FFF73DFF0020FFF73AFFA3
:100490000320FFF729FF1020FFF734FF3020FFF77C
:1004A00031FF0720FFF720FF0020FFF72BFF002080
:1004B000FFF728FF0820FFF717FF0820FFF722FFAC
:1004C0000820FFF71FFF0B20FFF70EFF1120FFF79B
:1004D00019FF0020FFF716FF0C20FFF705FF002093
:1004E000FFF710FF0020FFF70DFF0F20FFF7FCFEC6
:1004F0000D20FFF707FF0120FFF704FF1520FFF78E
:10050000F3FE0020FFF7FEFE2020FFF7FBFE202079
:10051000FFF7EAFE0020FFF7F5FE0020FFF7F2FEEE
:100520002120FFF7E1FE0020FFF7ECFE0020FFF79F
:10053000E9FE3020FFF7D8FE0020FFF7E3FE0020A1
:10054000FFF7E0FE3120FFF7CFFE0020FFF7DAFED5
:10055000DB20FFF7D7FE3220FFF7C6FE0020FFF7B3
:10056000D1FE0020FFF7CEFE3320FFF7BDFE0020B6
:10057000FFF7C8FE0020FFF7C5FE3420FFF7B4FEEA
:100580000020FFF7BFFEDB20FFF7BCFE3520FFF7A2
:10059000ABFE0020FFF7B6FE0020FFF7B3FE3620CB
:1005A000FFF7A2FE0020FFF7ADFEAF20FFF7AAFE87
:1005B0003720FFF799FE0020FFF7A4FE0020FFF789
:1005C000A1FE3820FFF790FE0020FFF79BFEDB2006
:1005D000FFF798FE3920FFF787FE0020FFF792FE15
:1005E0000020FFF78FFE5020FFF77EFE0020FFF770
:1005F00089FE0020FFF786FE5120FFF775FE0820D8
:10060000FFF780FE0820FFF77DFE5220FFF76CFE0B
:100610000820FFF777FE0A20FFF774FE5320FFF74C
:1006200063FE0020FFF76EFE0A20FFF76BFE5420EA
:10063000FFF75AFE0A20FFF765FE0820FFF762FE6B
:100640005520FFF751FE0820FFF75CFE0820FFF75A
:1006500059FE5620FFF748FE0020FFF753FE00200A
:10066000FFF750FE5720FFF73FFE0A20FFF74AFE34
:100670000020FFF747FE5820FFF736FE0720FFF760
:1006800041FE1020FFF73EFE5920FFF72DFE072008
:10069000FFF738FE1020FFF735FE0720FFF724FE96
:1006A0000020FFF72FFE1220FFF72CFE00F01BF9B1
:1006B000322000F033F900F00BF90720FFF714FEA9
:1006C0001020FFF71FFE1720FFF71CFE00F00BF9AC
:1006D000322000F023F900F0FBF80020FFF704FEC1
:1006E000FF20FFF701FE0020FFF70CFE0020FFF7C0
:1006F00009FE1020FFF7F8FD0020FFF703FE0020A1
:10070000FFF700FE00F0EFF8322000F007F900F0EC
:10071000DFF80720FFF7E8FD1020FFF7F3FD1720B3
:10072000FFF7F0FD00F0DFF804E0C046B44700102A
:10073000B047001070BDC04610B500F0C9F82220C7
:10074000FFF7D2FD10BD10B500F0CDF810BDF8B523
:1007500007000E00FFF7F0FF3620FFF7C5FD002071
:10076000FFF7D0FD9720FFF7CDFD3720FFF7BCFD49
:100770000020FFF7C7FD3820FFF7B6FD0020FFF788
:10078000C1FDAD20FFF7BEFD3920FFF7ADFD002014
:10079000FFF7B8FD2020FFF7A7FD0020FFF7B2FD0F
:1007A0001820FFF7AFFD2120FFF79EFD0020FFF787
:1007B000A9FD2E20FFF7A6FD2220FFF795FD0024BE
:1007C00008E065006B1CF85CFFF79CFD785DFFF7A7
:1007D00099FD0134F30F9B195B10A342F1DCFFF785
:1007E000B2FFF8BD10B5FFF7A7FF002403E000201B
:1007F000FFF788FD0134034B9C42F8DDFFF7A3FFB0
:1008000010BDC0467F2E010010B5012000F0DEF8BB
:10081000D0231B0602225A625A610C480268C72381
:100820005A40083313400A4A13600A4903F098FEFD
:100830000121022000F0B2F80121032000F0AEF8FF
:100840000121102000F0AAF810BDC04600C00340EE
:1008500000D00340003FAB01022815D003281CD074
:10086000012808D0114B1A6807235A40C833134097
:100870000F4A136007E00D4B1A6887235A4048332C
:1008800013400B4A13607047084B1A6847235A40BD
:1008900088331340064A1360F5E7044B1A68C723F0
:1008A0005A4008331340024A1360ECE700C003408B
:1008B00000D0034000B583B06B46D91D08700122FB
:1008C000024803F065FF03B000BDC04600C003400E
:1008D000C046C046C046D0231B0602229A61C046CD
:1008E000C046C0467047C046C046C046D0231B061F
:1008F00002225A61C046C046C0467047024B0022E1
:100900001A60024B1A607047900800208C08002083
:10091000014B00221A6070479008002010B500F0CB
:100920000EFF10BD80B5184FBD44FFF7DBFCFFF78D
:10093000E5FFFFF7EDFFFFF767FF0020FFF78CFFF4
:10094000FFF706FDFFF74EFF10496C221048684480
:1009500003F082FC0F4A012101A803F077FC002379
:1009600006E05A000A496944505A01A9505210330E
:10097000352BF6D9074906486844FFF7E8FE002002
:10098000054B9D4480BDC04690A2FDFFB8470010B6
:10099000045D0200802E0100705D020010B583002E
:1009A000084A944663441A684024624080341440E4
:1009B0008022520113431C60C000034B9C466044DC
:1009C000416010BD04C001400040014010B501234A
:1009D0008340D0221206936293610521FFF7DEFF68
:1009E00010BD0000EFF3108072B6034B1B68002BA4
:1009F000FBD0BFF35F8F70472C0100D0BFF35F8F38
:100A0000024B00221A6080F3108870472C0100D03E
:100A1000F8B506000C001500FFF7E4FFE308F7182F
:100A2000F15C07222240012393400B4205D1DBB247
:100A30000B433B70FFF7E2FFF8BD2100280001F0F7
:100A4000F7F90000034B1B6802201840431E984131
:100A5000C0B2704700C00640002307E0054A9A185C
:100A60009200BFF35F8F0021116001331F2BF5D976
:100A70007047C04640000034054A1078431CDBB282
:100A80001370172B02D9130010221A707047C0463A
:100A9000F0010020074B9B68103080001950BFF315
:100AA0005F8FBFF35F8F044B0021196082F31088C2
:100AB0007047C04600ED00E0240100D010B5038867
:100AC000DA0A1C2A05D15B055B1502335B00C018EE
:100AD00010BD034B034A0448A72101F011F9C04699
:100AE00024480010BC4900103C48001010B5091AF9
:100AF0000B1F0A4A88180A4A904208D8C90706D428
:100B00005B105B055B0D0748184380B210BD064BB8
:100B1000064A0748992101F0F3F8C046FC07000097
:100B2000FE0F000000E0FFFF88480010B0490010F1
:100B30003C48001010B5091A04394A08090B08D1BD
:100B40004905490D064B0B430380064B1343438075
:100B500010BD054B054A0648A12101F0D1F8C04659
:100B600000F0FFFF00F8FFFFB848001084490010B4
:100B70003C48001001238340034A10681840431E7C
:100B80009841C0B27047C04600E100E0002904D09F
:100B9000034B1860034B18607047034B1860FBE76A
:100BA00080E200E000E100E080E100E010B5012318
:100BB00083401800FFF7EAFF10BD0000024B9B685E
:100BC00010308000C058704700ED00E070B50400A0
:100BD0000D00EFF3108672B60C4B1B68002BFBD098
:100BE000BFF35F8F2000FFF7E9FF094B984201D068
:100BF000A84205D1320029002000FFF74BFF70BD4D
:100C0000044B054A05487C2101F07AF8240100D004
:100C1000CD010010C8480010CC4900103C4800101D
:100C2000F0B5CE46474680B583B006000D00EFF321
:100C3000108872B6504B1B68002BFBD0BFF35F8F40
:100C40004E4B9A6834001034A300D7584C4B9F4247
:100C500007D0AF4200D18CE001974A4BFB1A2F2BF3
:100C600009D9424639003000FFF714FF03B0C0BC79
:100C7000B946B046F0BD3000FFF77CFF8146002149
:100C80003000FFF793FFBFF35F8FFFF7ECFA002808
:100C900001D0844211D10123019C9C430021A3680F
:100CA000AB4212D00622A256002A0DDB53009B183D
:100CB0009B00344A2100D418F1E7334B334A2C21EE
:100CC0003348FF3101F01CF82100AB424AD1062520
:100CD0006557002D2CDB2B4B6A00521992009B1894
:100CE0009A68A260DA79E2719B795BB2A371002BFA
:100CF00010DABD200002A080224B6A005219920037
:100D00009B18244A11789971157049463000FFF7F5
:100D10004DFFA6E76800401980001A4BC018043048
:100D2000FFF7CCFE0100231D1800FFF7DFFEE2E70E
:100D3000002812D100290ED0FF238B71164B8B8017
:100D400014490B78A3710F4A144BA41A64416343EE
:100D50001B0D0B70D9E70A4FF2E71149201DFFF771
:100D6000E9FED2E70F4B094A60210948FF3100F044
:100D7000C7FF034F75E7C046240100D000ED00E037
:100D8000CD010010F4010020004900109C49001022
:100D90003C480010D50A002000BDFFFFAAAA0000B1
:100DA0002E0200202449001070B5040001260643DD
:100DB0002D4BF31A2F2B28D8FFF755FA00282BD0EC
:100DC000EFF3108C72B6294B1B68002BFBD0BFF3DE
:100DD0005F8F254A264D2100891A49414D432D0D2B
:100DE0006DB2244B9B6880001B58B3421BD000217E
:100DF000032932D81C4B4A00521892009B189B7949
:100E00005BB2AB421FD00131F2E71B4B1B4AC22140
:100E10001B48490000F074FF1A4B184A88211848F3
:100E2000FF3100F06DFF134B9B68174A1A50174BA8
:100E30001A78A2711D70BFF35F8F0C4B00221A60ED
:100E40008CF3108870BD084B4A00501880001818A9
:100E5000FF2686710E4A8280E9E70E4B074ACC21B5
:100E60000748490000F04CFFF4010020240100D0A5
:100E7000AAAA000000ED00E02C490010684900100B
:100E80003C48001054490010CD010010D50A002044
:100E900000BDFFFF604900100022044B02E004493E
:100EA00002C30132072AFAD97047C04600E400E0C5
:100EB00080808080024B9C466144890001607047BD
:100EC00040000034084B5B6A994209D8064A926A8E
:100ED000824207D2994201D0012002E0002000E0C6
:100EE000002070470120FCE70040054010B50029B4
:100EF0000AD003681B7B8B4206D38068054B9C4657
:100F000061440901401810BD034B044A04483B21C9
:100F100000F0F6FEFFFFFF0FE8490010444D0010FF
:100F20000C4A0010F8B504001700FFF7DFFF066851
:100F3000456839002000FFF7D9FF026843680120A7
:100F4000AB4201D802D00020C0B2F8BDB242FBD8FB
:100F5000F9E7000010B5002B02DB0260436010BD12
:100F6000024B034A03483F2100F0CAFE544A0010D6
:100F7000104D0010704A001070B582B006001400C9
:100F80001D00069A079B12196B419D4202D804D19D
:100F9000944202D901225242D3176846FFF7DAFF82
:100FA000009A019B32607360300002B070BD000097
:100FB00010B5002908D0037B8B4205D300684B0095
:100FC0005B18033BC01810BD024B034A034868215D
:100FD00000F096FEC44A0010EC4C0010E04A0010ED
:100FE00010B5437B8B4201D1012010BDFFF7E0FF1C
:100FF0008378002B01D10020F7E70120F5E770B5D9
:101000000400857B002D01D1280070BD2900FFF769
:10101000CFFF4378A373002B00D1E37300238370C9
:1010200043700370F0E70000F8B506000C001500EF
:10103000FFF7BEFF0700002C0DD0002D11D0AC42F1
:1010400015D029003000FFF7B3FF84703B78002BE8
:1010500013D13D70F8BD0A4B0A4A0B486F2100F0CE
:101060004FFE0A4B074A0848702100F049FE084B22
:10107000044A0548712100F043FE43703D70E9E7E2
:10108000384B0010C84C0010E04A0010444B0010D0
:10109000504B001070B506000D001400002914D04C
:1010A000002A14D0436880689847002806D02200A0
:1010B00029003000FFF7B8FF280007E02A002100D0
:1010C0003000FFF7B1FF200000E0100070BD080005
:1010D000FCE7000070B504000D1E0CD0FFF768FFA0
:1010E0000023837043700370617B2A002000FFF7A8
:1010F000D1FF607370BD034B034A0448A52100F083
:10110000FFFDC046684B0010DC4C0010E04A0010A8
:1011100070B505000C1E08D0FFF762FF002804D14F
:10112000E97B002907D1EC7370BD054B054A0648E1
:10113000F62100F0E5FD2800FFF73AFF4470F2E7E2
:101140006C4B0010B84C0010E04A001010B500299C
:1011500007D003681B7B8B4203D3C068013940185A
:1011600010BD034B034A0448402100F0C9FDC046AE
:10117000E8490010A44C00100C4A001070B505009E
:101180000C00080000F02AFB200000F00FFC0849CA
:10119000200000F04FFBFFF76FFC064B9C466044BD
:1011A000800068602C75044BA400E55070BDC046FB
:1011B000C912001040000034AC0800200A4B1A6825
:1011C000EFF3108172B61368002BFCD0BFF35F8F72
:1011D000054B1B68BFF35F8F00221A6081F31088F4
:1011E00040BF002000217047C00A002010B582B027
:1011F000040000F0FFFA02000B006846FFF7AAFEA9
:10120000009A019B22606360200002B010BD70B59F
:1012100084B0040016001D0002A8FFF7E7FF029A41
:10122000039B009601952000FFF7A6FE200004B066
:1012300070BD0000F0B583B0070001921D000AAB3D
:101240001C780BAB1E78002C0BD000682100FFF738
:10125000C7FE002809D0194B194A1A48652100F029
:101260004FFD0068FFF7CBFE0400002C02D12000E8
:1012700003B0F0BD21003800FFF738FE019B03608A
:101280004560089B8360099BC36038682100FFF7B5
:1012900021FFA042EBD1387D019A2B0000F012FB18
:1012A000051E01D0002E04D00C9B002BDFD01D703A
:1012B000DDE73868210000F0B1FCF5E7904B001045
:1012C000F84C00100C4A0010F0B5DE4657464E466A
:1012D0004546E0B58FB00B900021784B8200D45882
:1012E000894682E029002000FFF700FE8046026860
:1012F0004368921BBB41002B09DD43461A685B68BB
:101300000B9800F0DFFA00239846002689E0002BB6
:1013100001D1002AF1D10021584600F075FC0700E8
:10132000A84215D143461A685B6808920993434660
:101330009E68DB689846002E10D029002000FFF739
:1013400005FF037899461B021F432761002068E0D0
:101350005B4B5C4A5C488C2100F0D2FC5B4B594AE9
:101360005948902100F0CCFC2369002B77D0BB4278
:1013700019D106980799002342428B4100920193AC
:10138000089A099B0CA8FFF7F7FD0C9A0D9B00210A
:10139000049101310391029541460191009620008C
:1013A000FFF748FF16E04A4B464A47489F2100F0A6
:1013B000A7FC069A079B002B01D1002A52D1206876
:1013C0002900FFF7A5FE29002000FFF7BFFE0378E4
:1013D00001330370002323616268BFF35F8F1360E2
:1013E0008AF310880120002861D00CA8FFF7FEFEC8
:1013F0000C9E0D9F00220023089209936268EFF370
:10140000108A72B61368002BFCD0BFF35F8F23687D
:101410009B465D7B002D00D064E7002398460026A4
:1014200000206368BFF35F8F00221A608AF3108880
:10143000002ED8D04B461F022F4341463800B047FC
:10144000069007916268EFF3108A72B61368002B5A
:10145000FCD0BFF35F8F079B002B00DA84E7079B6C
:10146000002BA6DD2369002BA9D0BB4219D10CA803
:10147000FFF7BCFE0C9A0D9B06980799009001910E
:101480000CA8FFF779FD0C9A0D9B00210491013106
:10149000039102954146019100962000FFF7CAFE94
:1014A00098E70B4B074A0848A22100F029FC0FB02F
:1014B000F0BCBB46B246A946A046F0BDAC08002031
:1014C000B84B0010284D00100C4A0010D04B0010F3
:1014D000DC4B001010B50A4B5B68002B04D00948A8
:1014E0000A21FFF7E7FC10BD054C074A20682300DE
:1014F000102100F002FB03212000FFF73FFEEEE782
:101500003C020020C00A0020250F001010B5064B39
:101510005B68002B01D0044810BD044B044A054809
:101520005C2100F0EDFBC0463C020020184C00108E
:101530008C4C00100C4A0010F0B5DE4657464E4663
:101540004546E0B58DB0060090461F00169B9A46B2
:10155000179B994618AB1B780793272302AA94463A
:10156000634400221A7021E001003000FFF7EEFD15
:1015700000783CE00698002B5CD0079B002B59D0EC
:101580004946D04704000D0003000B4359D0002901
:1015900040DB08A8FFF72AFE089A099B00940195F2
:1015A00008A8FFF7E9FC089B9846099F7268EFF3CB
:1015B000108B72B6136859424B41D9B20691002B79
:1015C000F8D1BFF35F8F273302AA94466344049394
:1015D0000023039302934B460193534600934246E4
:1015E0003B003000FFF726FE0400051EBCD17368E7
:1015F000BFF35F8F002119608BF31088002D17D087
:10160000272302AA944663441B78002BB2D1000220
:101610002043B0E700236242AB410092019342466F
:101620003B0008A8FFF7A8FC089B9846099FBDE768
:10163000012040420DB0F0BCBB46B246A946A046D0
:10164000F0BD0698F6E7F0B5C64600B584B00500D3
:10165000884616001F000AAB1C78FFF757FF02945C
:10166000019700962A004346FFF766FF04B080BC4E
:10167000B846F0BD30B587B004000D00FEF7F3FDAD
:10168000002820D106225242D31712196B41AB42D7
:1016900002D803D1A24201D90022002304A8FFF7F7
:1016A00059FC02A8FFF7A2FD02980399049A059B32
:1016B000121A8B41002B0BDC08D02000290000F00F
:1016C000A5F807B030BD144800F0B2FB002AF4D0F2
:1016D000124A0498059900230093FFF7B4FF0028ED
:1016E00013DAEAE70E4B1A68EFF3108172B613684B
:1016F000002BFCD0BFF35F8F094B1B68BFF35F8FDC
:1017000000221A6081F3108820BF04980599FFF722
:10171000D9FB0028E6D0D0E73C4C0010BD110010EA
:10172000C00A002000B583B002000B006846FFF736
:101730006EFD00980199FFF79DFF03B000BD10B545
:10174000FA2292000023002102F0C6FCFFF7EAFF14
:1017500010BD000070B5EFF305833F20184010382E
:10176000EFF3108C72B6184B1B68002BFBD0BFF345
:101770005F8F012319008140144A5163144A127883
:101780001400C440234213D0104B5C6A114B8500F7
:10179000EB589C4205D3104BEB580D4C8A432270FA
:1017A00007E00A4A031D9B0099589950002300E066
:1017B0000023BFF35F8F044A002111608CF310886F
:1017C000002B00D0984770BD280100D00040054094
:1017D000D60A0020C40A00200C08002010B5010021
:1017E000024A034B1800FFF713F910BD504D0010CB
:1017F000D40A0020044B5B6A034A906A1900536ABA
:101800009942F9D17047C04600400540084B5B6AD9
:1018100001E0074B5B6A8B42FBD301E0044B5B6A40
:101820008B4203D1024B9B6A8342F7D37047C04679
:101830000040054070B504000E00EFF3108572B64D
:101840001B4B1B68002BFBD0BFF35F8F002E1CD0FF
:101850002000FFF7B3F9174B83420BD0190020008B
:10186000FFF7B4F901212000FFF7A0F90123A340FD
:10187000114A1360114BA400E650BFF35F8F0C4B6D
:1018800000221A6085F3108870BD0C4BA200002165
:10189000D1500122A2400A490B7893430B700549AD
:1018A0002000FFF7BDF900212000FFF77FF9E4E7F2
:1018B000280100D055170010386005400C080020A2
:1018C000D60A0020F0B5DE4600B584B0040015004D
:1018D00001921E000293FFF78DFF03958E4202D8FE
:1018E0004ED185424CD9EFF3108B72B6274B1B6853
:1018F000002BFBD0BFF35F8F254A17780125A54049
:10190000EBB23B431370234B5D63221D92000199A0
:10191000D150214AA100029888501B6A2B4212D153
:101920001C4B1B6C2B4208D00020BFF35F8F174B62
:1019300000221A608BF3108823E0184B184A1948CC
:10194000C12100F0DDF9FFF755FF8E4214D802D116
:10195000039B834210D80E4B1B78BB420ED00D4B1D
:101960001D625D631F222240012393400E4A1360D3
:10197000074B1F700120D8E70020D6E70120D4E7ED
:10198000012004B080BCBB46F0BDC046280100D099
:10199000D60A002000400540C40A0020744D001003
:1019A000E84D0010984D001080E200E0EFF3108C3D
:1019B00072B60B4B1B68002BFBD0BFF35F8F01236C
:1019C0008340084A136208490A789A430A70BFF3B1
:1019D0005F8F034B00221A608CF310887047C0465B
:1019E000280100D000400540D60A002010B500298B
:1019F00008D0037B8B4205D300684B005B18033B88
:101A0000C01810BD024B034A0348682100F078F962
:101A1000C44A0010004F0010E04A0010F8B506005C
:101A20000C001500FFF7E2FF0700002C0DD0002D81
:101A300011D0AC4215D029003000FFF7D7FF8470D9
:101A40003B78002B13D13D70F8BD0A4B0A4A0B4876
:101A50006F2100F055F90A4B074A0848702100F041
:101A60004FF9084B044A0548712100F049F94370C9
:101A70003D70E9E7384B0010EC4E0010E04A0010D2
:101A8000444B0010504B001070B506000D001400C0
:101A9000002914D0002A14D0436880689847002891
:101AA00006D0220029003000FFF7B8FF280007E029
:101AB0002A0021003000FFF7B1FF200000E01000F5
:101AC00070BD0800FCE770B50500002343730133C7
:101AD0008373037BC373012406E021002800FFF712
:101AE00085FF0134E4B24470297BA142F5D8280077
:101AF000FFF77CFF0023437070BD10B50173426097
:101B00008360FFF7E0FF10BDF0B5C64600B50500E5
:101B10000C1E03D1200080BCB846F0BDFFF766FF65
:101B20004678002EF6D031002800FFF75FFF477897
:101B300000239846437021002800FFF757FF4346D3
:101B40004370320021002800FFF79EFF0400390097
:101B50002800FFF7D9FF020021002800FFF794FFBB
:101B60000400D7E7F0B5C64600B504000D00170025
:101B7000002920D0FFF73AFF4378002B21D183784A
:101B8000002B24D101782000FFF7BEFF060080461D
:101B9000002F03D0E17B00291FD1E5734346002BC2
:101BA00020D129002000FFF721FF002343703000DF
:101BB00080BCB846F0BD0F4B0F4A1048382100F0EA
:101BC0009FF80F4B0C4A0D483A2100F099F80D4B45
:101BD000094A0A483B2100F093F82000FFF706FF6E
:101BE0004570DAE731002000FFF700FF0023837023
:101BF000D7E7C046044E0010D84E00100C4E00101F
:101C0000544E00107C4E001070B504000A00457B55
:101C10002900FFF7A7FF6073280070BD70B50600AC
:101C20000C1E40D0437B8B4207D0FFF7DFFE050040
:101C30008178002906D1002036E00121FFF7E4FF7A
:101C4000012031E03000FFF7D1FE0178A1420DD034
:101C50003000FFF7CBFE4178A1420AD00029F7D12E
:101C6000124B134A1348673100F04AF86B7803703F
:101C700001E06B7843700023AB706B700122210090
:101C80003000FFF76FFF0200717B814205D030000A
:101C9000FFF7FAFE7073012006E0074B044A05487F
:101CA0006D2100F02DF8002070BDC0466049001085
:101CB000C04E00100C4E0010A04E001010B50400D5
:101CC000FEF7DAFE01002000FFF7F4F8FF2323718E
:101CD000BFF35F8F10BD10B50400FEF7CDFE01000D
:101CE0002000FFF7E7F8FF23237100236371BFF3A0
:101CF0005F8F10BD00BEFDE710B5FFF7FBFF0000D2
:101D000030B583B00D001900002A0BD0074B084CEA
:101D1000019200932B000200200002F0CBFB012077
:101D2000FFF7E8FF034B1A00F1E7C046B44F00107D
:101D3000C44F0010C04F001070B52B4B2B4A1A60D7
:101D40002B4B2C4A1A602C4B9A682A4B9343FAD19E
:101D50002A4C01E008CC9847294B9C42FAD300F06A
:101D600001F9234B274A1A60234B9B68DB43DB01B5
:101D7000FAD1254B40229A675A671A67DA66234CD4
:101D800009E0234B234A24488321FFF7B9FF2000B1
:101D9000FFF794FF0834214B9C4209D22368002BA3
:101DA000F5D0012BEDD12000FFF795FF0834F2E7C5
:101DB0001B4DA9681B4CC022200002F04DFAAC60FC
:101DC000FEF751FA002800D000BEFEF745FEFFF7EF
:101DD00063F8FFF77FFB144C01E008CC9847134BE6
:101DE0009C42FAD370BDC04600E00040BFCDFBFE70
:101DF00000F00040FE7F3C0000C00040CC06002008
:101E0000DC060020FFFFFF0100F00140C4060020B7
:101E1000F44F00107850001014500010CC06002031
:101E200000ED00E000000020DC060020E4060020B9
:101E30000FB400B583B0084802F00AFB049B002BE6
:101E400007D005A90191180002F012FB034802F027
:101E5000FFFA0120FFF74EFF64500010745000108D
:101E6000F8B5DE4657464E464546E0B506000F003B
:101E700015000A9A93424ED31A0E92461B029846B8
:101E80000A9A00234046514601F022FB8146740025
:101E9000A419A4002E4B9C4664446368834200D27C
:101EA0006060331FDBB29B46012B3AD9C0239B01F4
:101EB0002343802212011A60264BB200D158002918
:101EC00005D0586901F0C2FA01300138FDD16D0129
:101ED00023685D40E0222A4080235B0123431A608F
:101EE0005A46012A28D980239B01234380221201CC
:101EF0001A604B4663604A4600234046514601F053
:101F0000E7FA144BB60098510120F0BCBB46B2462C
:101F1000A946A046F8BD104B104A11482D21FFF7E5
:101F2000EFFE012FC2D1C0239B01234303221A607D
:101F3000A368DB07FCD5CAE72168794003220A4081
:101F40001A60A3680125BD401D42FAD0CBE7C04608
:101F5000008000401C08002088500010F050001045
:101F60009C50001030B583B00C2000F021F9FEF732
:101F700069FD00280DD0002304E02E4A99002E4868
:101F800088500133092BF8D92A4B2C4A5A6203B0E6
:101F900030BD2B4B00229A6700F012F9294B012229
:101FA0001A60274B5B6C012BFBD1274B03221A6075
:101FB000234B9B6B012BFBD1013300930433234A4A
:101FC0000121234800F054F805230093214A012100
:101FD000214800F04DF8214B0093002202210420FB
:101FE000FFF73EFF1E4D00952B000022012105202A
:101FF000FFF736FF104C0094230000220021072039
:10200000FFF72EFF00942300002200210820FFF795
:1020100027FF0A4B00932300002200210920FFF72D
:102020001FFF00952B00002200210620FFF718FF5C
:10203000ADE7C0461C080020006CDC021BB70000A6
:10204000008000403CB0004030B00040002F685994
:1020500000800240008C864700C00240001BB70091
:1020600040597307014B8000C05870471C0800207E
:10207000F0B5C64600B504000F0090461D000C20C8
:1020800001F0E4F906003D4A42443D4B9A4243D8F0
:1020900043011B1A9901C91AC90009188901404650
:1020A00001F0D4F90200103A98235B009A4239D823
:1020B0006B1E062B3CD8069B013B062B38D8069B93
:1020C0009D423BD343461B09B3423DD32D04069B9F
:1020D0001E0335432368002B3CDB2A4B9C424AD02D
:1020E00080235B01284A1360284A1360284A9268BB
:1020F00019009143FAD12760A060221DC0239B01E3
:10210000134321221A602268002AFCDAE5600822C3
:102110001A6080BCB846F0BD1E4B1F4A1F481121F3
:10212000FFF7EEFD1E4B1C4A1C481921FFF7E8FD86
:102130001C4B194A19481C21FFF7E2FD1A4B164A9D
:1021400016482221FFF7DCFD184B134A13482521BE
:10215000FFF7D6FD22683F231340BB42BDD1A368E1
:102160001B051B0D8342B8D1E368EE22D202134057
:10217000AB42B2D1CDE780239B01B3E780E84BD3DC
:1021800080F8A93200C0024000E0004000F00040AA
:1021900000C0004000510010485200106051001073
:1021A000AC510010C8510010145200102C520010F5
:1021B00080239B000343014AD3627047008005409F
:1021C000064BAA2212011A602F22DA60044B054A3C
:1021D0001A60024B5B68002BFBDA7047004002403C
:1021E0000060024000B0FA00704710B5002802D02D
:1021F0000B684968984710BD0100002007E0830084
:102200001B185B00501C08601078C01830380A6832
:102210001378303BDBB2092BF1D97047F0B5DE46BD
:1022200057464E464546E0B583B093461F000C9B8B
:102230009A460D9C0E9B99460F9B9B0703D0B84670
:102240000F00060022E00192A34688464E46B9469A
:102250000700B44207D2551C4B4641462020B847E0
:1022600001342A00F5E73D004F465C46019B9B4642
:10227000B1464646B84637002E0007E0013C551CE3
:102280005346185D43463900B0472A00002CF5D16B
:1022900035003E0047460F9B9B0707D4100003B054
:1022A000F0BCBB46B246A946A046F0BDB0464E467D
:1022B000B9462F005D46531BB342EFD2541C4B4628
:1022C00041462020B8472200F5E7F0B5CE46474604
:1022D00080B585B0944698460C9D0D9C0EAB1B783E
:1022E0009946109A119B129EB7071CD4002B0CD054
:1022F000F7070AD54F46002F02D10C37374204D0DA
:10230000013B02E030272F550134944201D21F2CAB
:10231000F8D9F70707D59C4205D21F2C03D83027E0
:102320002F550134F5E7F70612D5770505D4002CB3
:1023300003D0944221D09C421FD00F9A102A32D051
:102340000F9A022A37D01F2C0AD830222A5501347E
:102350001F2C05D84A46002A33D02D222A55013495
:10236000039602930194009543466246FFF756FF99
:1023700005B0C0BCB946B046F0BD621E012C10D0FD
:102380000F9F102F0BD014000F9A102AD8D1B2062D
:10239000D6D51F2CD4D858222A550134D3E7023C75
:1023A000CBE71400C9E7B206EED41F2CECD8782294
:1023B0002A550134C7E71F2CD2D860322A55013480
:1023C000C1E7720703D52B222A550134C8E732072B
:1023D000C6D520222A550134C2E7F0B5DE4657465D
:1023E0004E464546E0B593B081468A460892099329
:1023F0001CAB10CB1B789B461E9D219B9846002C46
:1024000003D1102342469A4390468023DB00464680
:102410001E4042461A4212D0002C22D000260EE066
:102420003033D9B2771C0AAB99552900200001F04E
:102430000DF8AC4216D31F2F14D83E00040029001B
:10244000200001F003F8CBB2092BE9D942469206ED
:1024500005D54121C918C9B20A39C9B2E2E76121DB
:10246000F8E7270043460693209B05931F9B0493A0
:1024700003955B46029301970AAB0093099B089A68
:1024800051464846FFF721FF13B0F0BCBB46B246A9
:10249000A946A046F0BDF0B5DE4657464E46454635
:1024A000E0B597B00A900B910C929A46209B994602
:1024B000219F22AA13789B46249B0993259C289B45
:1024C00098464A463A4302D11032934398468022B6
:1024D000D20045461540434613420AD04A463A4385
:1024E00041D000252E0053460D934D46099B9A4638
:1024F0001BE02E0053460D934D46099B9A4614E06F
:102500003033DAB2731C99460EAB9A55524623000B
:102510002800390000F0DCFFBC4226D819D04B4619
:102520001F2B1CD84E4605000F00524623002800E2
:10253000390000F0CDFFD3B2092BE1D94246920613
:1025400005D54122D218D2B20A3AD2B2DAE76122D4
:10255000F8E7AA45E3D94E460D9B9A4608E04E4659
:102560000D9B9A4604E0002602E04E460D9B9A46DB
:1025700043460693279B0593269B0493099B03934D
:102580005B46029301960EAB009353460C9A0B994F
:102590000A98FFF79AFE17B0F0BCBB46B246A946B0
:1025A000A046F0BDF0B5DE4657464E464546E0B57E
:1025B00091B0804689460C929A461A9C1B9D220037
:1025C0002B002000290001F012FA002800D0ECE0D6
:1025D00001225242D44B2000290001F003FA0028C6
:1025E00000D0E2E001225242D04B2000290001F04D
:1025F000E3F9002800D0D8E00022002320002900C1
:1026000001F0DAF9002800D0E4E006940795802371
:10261000DB001E9A1A400D921E9A1A4201D106231F
:102620001C930698079902000B0008920993030077
:102630000A00024300D1D9E0080D4005400DBC4E10
:10264000B44660440A03120B1E00BA4B13431F002A
:1026500001F0E0F9B84AB94B01F06BF9B84AB94B4F
:1026600001F040F9089009910022B74B3000390081
:1026700001F02FF9B54AB64B01F05BF902000B00EF
:102680000898099901F02EF901F0DCF9834601F070
:10269000C1F906000F00AF4AAF4B01F04AF9002222
:1026A000AE4B01F01FF901F0CDF90890AC4AAD4BEB
:1026B0003000390001F03DF906000F00089801F0E4
:1026C000A9F9A94AA94B01F034F902000B00300026
:1026D000390001F0FEF806000F0002000B0001F0C7
:1026E00028F90A900B91089BA14A94466344002163
:1026F0000022089109921B050993002308933200D8
:102700003B003000390001F0EDF80E900F913200DF
:102710003B0000208021C90501F0DBF806000F0016
:102720000022944B0A980B9901F0E5F80022924B95
:1027300001F0D8F802000B000A980B9901F0DBF8C1
:1027400000228E4B01F0CEF802000B000A980B9984
:1027500001F0D1F802000B003000390001F0C2F89E
:1027600002000B000E980F9901F0C5F80022714B82
:1027700001F0B8F8089A099B01F0DBF806000F0099
:1027800008960997069A079B01F02CF900282FD08C
:1027900001235B429C46E3440022774B3000390022
:1027A00001F0A9F80890099122E01E9B04931D9B5B
:1027B00003931C9B02930094019553460C9A49463F
:1027C000404600F0FFF811B0F0BCBB46B246A94647
:1027D000A046F0BD002100220691079206948023B6
:1027E0001B069C46AC446346079310E700239B46B8
:1027F0005B466333C62B20D804261E9B1B0528D5B9
:10280000089A099B190011430FD05D4A5D4B069849
:10281000079901F0DFF800287AD000225A4B069879
:10282000079901F0C9F8002872D01C9B5B4506DDB2
:102830005A469B1A013B1C9303E00526DDE7002363
:102840001C938023DB001E9A1A431E92002600234D
:102850009B461D9B9E4265D29F1B02231E9A1A40D7
:102860000A921E9A134202D0002E00D000275B4627
:10287000002B07D0089A099B0698079901F03BF8AE
:1028800006900791002200232000290001F094F80F
:10289000002800D07CE03D4B1E9A13400493039720
:1028A0001C9B0293069B079C0093019453460C9A31
:1028B0004946404600F086F8002E00D183E71E9B73
:1028C0009B0671D54525441C534602004946280005
:1028D000C0475A46D317D2185A4005230593013EE4
:1028E0000496002303930A3302935B46DB0F0193A4
:1028F00000925346220049464046FFF76EFD0A9B70
:10290000002B00D15FE7020047460C9E1D9D53E05F
:102910001C9B002B9DD00D9B002B9AD01C9B013B38
:102920001C9396E7002798E7FFFFEF7FFFFFEFFF7D
:1029300001FCFFFF0000F03FFB799F501344D33FA1
:10294000B3C8608B288AC63F0000F83F61436F63BD
:10295000A787D23F71A379094F930A400000E03F57
:102960001655B5BBB16B0240EF39FAFE422EE63F79
:10297000FF03000000002C4000002440000018402D
:102980002D431CEBE2361A3F80842E41FFF7FFFFF8
:10299000069C079D22002900802000068446614491
:1029A0000B000692079376E765258CE7541C534687
:1029B00049462020B8472200931BAB42F6D31000B3
:1029C00001E7C046F0B5DE4657464E464546E0B5FF
:1029D00095B00690079193469946209F1E9A1F9B9B
:1029E0001000190001F003F8002831D101225242F1
:1029F000BF4B1E981F9900F0DFFF002837D101223E
:102A00005242BC4B1E981F9900F0ECFF00283DD1AC
:102A10000022B94B1E981F9900F0E4FF002850D106
:102A20000022B64B1E981F9900F0C6FF002848D11F
:102A3000002200231E981F9900F0BEFF002850D1ED
:102A400000239846229B5B0500D4B6E0002458E0A2
:102A5000229B0393219B029303230193A84B009392
:102A60004B465A4607990698FFF7D8FB0EE1229B82
:102A70000393219B029304230193A24B00934B46A3
:102A80005A4607990698FFF7C9FBFFE00423229AEC
:102A90001A4022990B4210D09B4B002A0FD00422DF
:102AA0002299039121990291019200934B465A4633
:102AB00007990698FFF7B2FBE8E0944BEDE7032295
:102AC000EEE7229B0493219B039302971E9B1F9C7E
:102AD000009301944B465A4607990698FFF762FD0A
:102AE000D4E01E9A1F9B0020002100F0F2FE1E90F1
:102AF0001F9101239846A5E70CAB30221A55013FE0
:102B000001341F2C01D8092FF6D81E981F9900F008
:102B100099FF050000F07EFF02000B001E981F9930
:102B200000F0D7FE7A4BFA009B181A685B680A928D
:102B30000B9300F0FEFE0890099100F0A7FF06003D
:102B400000F064FF02000B000898099900F0C1FE34
:102B50000890099100226F4B00F044FF00282ED00E
:102B60000136300000F052FF02000B000A980B996A
:102B700000F028FF002801D001350026002F2CD1BD
:102B8000280000F047FF02000B001E981F9900F07C
:102B9000A0FE06000F0000225E4B00F00DFF002893
:102BA00046D100225B4B3000390000F01BFF0028AB
:102BB0003ED1EB073CD501353AE0062746E7002237
:102BC000544B0898099900F0F7FE0028D6D1002E42
:102BD00001D0F307D2D50136D0E7AA461F2C11D871
:102BE000013F0A21300000F031FC651C30310CAB94
:102BF00019550A21300000F029FC092E0ED90600D3
:102C00002C00EBE755461F2C0CD87B1E002F09D05B
:102C10000CAA302111551F000134F4E72B00554652
:102C20001C00F0E71F2C03D80CAB2E221A550134E0
:102C30001F2C10D80A21280000F0E0FB661C303160
:102C40000CAB19550A21280000F0D8FB051E01D055
:102C50003400EDE734000323229A1340012B1CD0EB
:102C60001F2C06D84346002B32D00CAB2D221A5510
:102C70000134229B0393219B029301940CAB00939C
:102C80004B465A4607990698FFF7C8FA15B0F0BCAC
:102C9000BB46B246A946A046F0BD219B002B13D0EF
:102CA0004346002B02D10C3313420FD0219B013B32
:102CB0002193190003E00CAB30221A5501348C42E9
:102CC000CED21F2CF7D9CBE72199F8E72199F6E767
:102CD000229B5B0704D50CAB2B221A550134C8E7A5
:102CE000229B1B07C5D50CAB20221A550134C0E727
:102CF000FFFFEFFFFFFFEF7F65CDCD4165CDCDC17C
:102D00006052001064520010545200105C520010C7
:102D1000085400100000E03FF0B5DE4657464E462E
:102D20004546E0B593B08246884693461193002904
:102D300000D106E300255646119B1878002800D1E3
:102D400002E3252809D06C1C5B462A004146B047A7
:102D5000119B013311932500EEE7013311930027F6
:102D600020E001231F4301321192012418E00223C5
:102D70001F4301321192012412E004231F43013248
:102D8000119201240CE008231F4301321192012407
:102D900006E010231F4301321192012400E00024B9
:102DA000002C09D0119A1378203BD9B21029F6D8FB
:102DB0008B00C449CB589F46119B1A781300303BB7
:102DC000DBB2092B10D92A2A13D00B94119B1A7845
:102DD0002E2A1ED0119A1378683BD9B2122959D8DD
:102DE0008B00B949CB589F4611A8FFF705FA0B9005
:102DF000ECE71C9B1A1D1C921B68002B04DB0B9339
:102E0000119B01331193E1E7022217435B420B93BD
:102E1000F6E78022D20017435A1C11925A78130009
:102E2000303BDBB2092B0BD92A2AD3D11C9B1A1DAC
:102E30001C921C68002C08DB119B01331193C9E71D
:102E400011A8FFF7D9F90400C4E70024F4E78023B0
:102E50005B003B43511C119151786C2901D01F003C
:102E600018E0C0239B001F430232119212E080231E
:102E70003B43511C11915178682901D01F0009E092
:102E8000C0231F430232119204E080235B001F43E2
:102E900001321192119B1878672816D8252826D35D
:102EA0000300253BDAB2422A21D89300874AD3583F
:102EB0009F4680239B001F4301321192EAE7802343
:102EC0005B001F4301321192E4E778280FD869288C
:102ED0000DD30200693AD2B2012393407C4A1342D7
:102EE0000FD11A0600D507E25B0500D594E16C1CF2
:102EF0005B462A004146B047119B013311932500E0
:102F00001AE778280AD062283AD06F283BD0582890
:102F10003CD010239F43063B9C4601E010239C4677
:102F2000582836D0692803D0642801D00C22974352
:102F30007A0501D50122974369282DD064282BD02A
:102F4000BA0500D5A2E0FA0500D5C3E07A0600D4A0
:102F5000D5E01C9A111D1C911168FF220A400597AB
:102F60000B9B049303946346029300230193009206
:102F70005B462A0041463000FFF72FFA05002AE0A1
:102F800002239C46CCE708239C46C9E710239C46B5
:102F9000C6E720221743C5E7BA0520D4FA0550D466
:102FA0007A0666D51C9A111D1C911168FF220A40F1
:102FB000D0171118414005970B9B04930394634667
:102FC0000293D20F019200915B462A0041463000E5
:102FD000FFF703FA0500119B01331193ACE61C9A2D
:102FE000073207218A43110008311C911168536888
:102FF0009946DB170C930D930C9A0D9B10004840DB
:103000000E904A4653400F930E980F990C9A0D9BC1
:10301000801A99410E900F9108970B9B0793069485
:1030200063460493002305934B46DA0F0292009007
:1030300001915B462A0041463000FFF72CFA05005B
:10304000C9E71C9A111D1C911268D0171118414034
:1030500005970B9B0493039463460293D20F01924E
:1030600000915B462A0041463000FFF7B6F90500A3
:10307000B1E73A0605D51C9A111D1C910023D25EBA
:1030800096E71C9A111D1C91126891E71C9A073251
:1030900007218A43110008311C9108970B9B079365
:1030A00006946346049300230593029353681268C1
:1030B000009201935B462A0041463000FFF7EBF98E
:1030C000050088E76C520010B0520010FC5200104E
:1030D000419000001C9A111D1C9105970B9B0493B5
:1030E00003946346029300230193136800935B46A5
:1030F0002A0041463000FFF770F905006BE73A06F9
:1031000006D51C9A111D1C9112681204120C26E798
:103110001C9A111D1C91126821E7462819D01C9B8E
:103120000733072293431A0008321C9204970B9A24
:10313000039202941A685B68009201935B462A002E
:1031400041463000FFF73EFC0500119B013311930F
:10315000F2E520231F43E2E7672801D0472802D188
:1031600080231B011F43452801D0472801D120237C
:103170001F431C9B0733072293431A0008321C92FB
:1031800004970B9A039202941A685B680092019369
:103190005B462A0041463000FFF704FA0500119B08
:1031A00001331193C8E502231A003A4091463B428D
:1031B0001DD001241C9B1A1D1C926F1C18785B46A5
:1031C0002A004146B0474B46002B14D1119B0133D6
:1031D00011933D00B0E5571C5B4641462020B047A7
:1031E00023003A005C1C9D42F5D81500E2E701235C
:1031F0002A000B9DF6E73A00B1460B9E06E0571CED
:103200005B4641462020C8472C003A00651CA64278
:10321000F5D817004E46D9E71C9B1A1D1C921B6857
:103220009A46002C25D101225242534601E0013337
:103230000A001978002902D0511E002AF7D15246FF
:103240009B1A8022D200390011408946174202D0D1
:10325000A34200D9230002221100394010913A42C2
:1032600009D02A00250057469A4633004E46994613
:1032700021E02200D9E72A004546A04606E0541C7A
:103280005B4629002020B0473B0022005F1C0B99C1
:103290009942F4D84446A8463B00250057469A4632
:1032A00033004E46994606E01D000137541C5B462C
:1032B0004146C84722003878002804D0002EF4D0B8
:1032C0006B1E002DF0D1150053464E46109A002A71
:1032D00003D1119B013311932EE50B9F2A0006E0C9
:1032E000551C5B4641462020B04723002A005C1C49
:1032F0009F42F5D81500ECE721233B431C9A111D92
:103300001C911268059308230493039408330293D5
:103310000023019300925B462A0041463000FFF7EC
:103320005CF80500119B0133119305E56C1C5B46AD
:103330002A0041462520B047119B013311932500F7
:10334000FAE40B4B9A46F5E4B2465D450DD35B4675
:103350005A1E5B4641460020D047280013B0F0BCFF
:10336000BB46B246A946A046F0BD2A00F1E7C046DA
:10337000E921001000B585B00290039101210448B5
:10338000009313004A4202A9FFF7C6FC05B000BD36
:10339000EB21001001480421014B18477002002066
:1033A000C533001010B5010018231B8814221088A3
:1033B000984710BD10B5010018231B8816221088ED
:1033C000984710BDF0B5C64600B507000E000025B1
:1033D0000123984600E00135B5420AD2AC003C1901
:1033E0002068FFF7DFFF20600028F4D10023984613
:1033F000F1E7404680BCB846F0BD0000124A936F2A
:103400009B0815D29066D166002905D0FFE7FFE73B
:10341000FFE7516F106F704704B580210906C2178E
:103420005140002800D0C84301F0A2F9002104BD9A
:10343000F0B5146E556E576F166FFFF7E3FF146605
:10344000556657671667F0BD000000D0114A936FAC
:103450009B0813D210665166002905D0FFE7FFE7ED
:10346000FFE7516F106F704704B5002801D00020AE
:10347000C04301F07DF9002104BDC046F0B5146ED3
:10348000556E576F166FFFF7E5FF14665566576761
:103490001667F0BD000000D094464E4A926F920825
:1034A000624601D230E0C046F0B54A4EB56F6D08B5
:1034B000FCD3346E756E776F366F00F025F8944646
:1034C000444A14665566576716676246F0BDC046A3
:1034D0009446404A926F9208624601D258E0C04634
:1034E000F0B53C4EB56F6D08FCD3346E756E776FDA
:1034F000366F00F04DF89446364A146655665767A5
:1035000016676246F0BDC046002B24DB11D00029AF
:103510003EDA00B5C943404200D1013100F038F82D
:10352000C943404200D10131DB43524200D1013353
:1035300000BD002AEBD1002801D1002905D00020D0
:10354000C90FC90701D1C043410800B501F008F90E
:103550000022002300BD00B500290ADBDB435242F4
:1035600000D1013300F014F8C943404200D10131C9
:1035700000BDC943404200D10131DB43524200D17A
:10358000013300F005F8DB43524200D1013300BDA6
:10359000002923D1002B18D1002A0CD0BC460D4F96
:1035A00038667A6600210023FFE7FFE7FFE77A6FBE
:1035B000386F67467047002801D00748010000B502
:1035C00001F0CEF80022002300BD02000B00002015
:1035D00000217047000000D0FFFFFFFF002B00D04C
:1035E000BFE0130C28D1002AE7D080B4114F396610
:1035F0007A66FFE7FFE730B4040C7B6F396F1B047A
:1036000023433B667A66FFE7FFE7FFE7C04684B2E5
:103610007B6F3D6F1B0423433B667A66FFE7FFE742
:10362000C04600232C042D0C7A6F386F00196941B5
:10363000B0BC7047000000D0F0B594460025140ED1
:1036400001D112020835140F01D112010435940F73
:1036500001D192000235D40F01D152000135D40BB3
:103660000134254F7C66254C3C660E0C93B2FFE777
:10367000FFE7FFE73C6F6643360C7703BE467343B4
:10368000DF0B5B04C01AB941130C7343DB18C91A72
:10369000CE086643360CB64493B273431F0F1B012A
:1036A000C01AB941130C73431F0B1B05C01AB94153
:1036B000860D8F023E436643360C092D24DB520AE9
:1036C0007243801A7703460A6643360C16235B1B47
:1036D000DE40DF40BF1964466643821B70460435F6
:1036E00006330100D940A840C01900D30131A242DD
:1036F00006D20023F0BD0000000000D0FFFFFFFF56
:10370000121B0130F3D3F1E709277F1BFE4064460B
:10371000A2B27243801A00D20139220C7243130CF8
:103720001204821A99410B007046043513370100C8
:10373000F940A840801900D30131002B02D1A242E8
:103740000AD2F0BD013000D30131121BFAD2013B85
:10375000F8D1A24200D2F0BD013000D30131121BDA
:10376000F7E7F0B51C0C00D080E00CB400251C0A73
:1037700004D11B02160E3343120208351C0B04D170
:103780001B01160F3343120104359C0B04D19B001F
:10379000960F334392000235DC0B02D192185B4145
:1037A00001351C00971864410134464F7C66464C35
:1037B0003C660E0CFFE7FFE7FFE7C0463C6F664341
:1037C000360C7703BE4697B27743C01B00D201394F
:1037D000C01B00D201399FB27743C91BC91B170C0C
:1037E00077437E04FF0B801BB941CE086643360C3D
:1037F0000C2D33DBB644120B1F053A431B0B97B25B
:103800007743C01B00D201399FB27743C91B170C05
:1038100077433E043F0C801BB941860D8F023E4327
:10382000664329277F1BFE400C3D7746AF40BF19FA
:1038300030BCA2B2ABB272437343801A9941220CDE
:103840007243130C1204801A994102000B000137D5
:10385000001BA941F9D2781E0021F0BD0C277F1B67
:10386000FE4077467F0BAF40FF19E0E700245D1C68
:1038700007D0144F7D663966FFE7FFE7FFE7FFE7F4
:103880003C6F95B29EB265436643401BB141150C37
:103890001E0C6543664336042F0C3E432D04401B2B
:1038A000B141994204D202000B0020000021F0BD7A
:1038B00001D19042F7D3801A994101349942F2D351
:1038C000F6E70000000000D0FFFFFFFF4840414046
:1038D000484018B41B4B5B68FC46019308BD04DFED
:1038E000AB3B001018B4174B1B68FC46019308BD96
:1038F00000DFB53B00109446134A926F920809D23C
:10390000624618B40F4BDB68FC46019308BD0CDF20
:103910006D3E00100C4AF0B5146E556E576F166F61
:103920006246FFF7EEFF084A14665566576716674A
:10393000F0BD18B4034B9B68FC46019308BD08DF3B
:10394000113D0010BC080020000000D0FFB5504021
:103950004240504059404B40594000E0FFB5154FA0
:103960004C00640D03D0BC4204D10C0314D80020D9
:10397000090D09055C00640D03D0BC4204D11C0391
:103980000AD800221B0D1B0501264B4009D44B40D1
:1039900003D58B4200D18242FFBD9942FCD19042B7
:1039A000FFBD0B43DB1803431343F5D0C94349184C
:1039B000FFBD0000FF07000000B5FFF7CFFF80410B
:1039C00000BDC04600B5FFF7C9FF01D9002000BD0A
:1039D000012000BD00B5FFF7B9FF01D9002000BDEF
:1039E000012000BD00B5FFF7B1FF804100BD0120FF
:1039F00040054A00121804D85A00121801D80020B5
:103A00007047012070470020704700000021002807
:103A100005D17047C1174840401AFAD0C90713B5FD
:103A2000064B1B6898470CBC441CA2401005120BA7
:103A30000349091B09051943114310BDBC090020A6
:103A40001F04000010B54C00620D8023D218DB006B
:103A5000D21A5B057E2A10DD9E3A13DACC170903D1
:103A6000490819435242D140640001341532202ADA
:103A700005DAD0400843604310BD002010BD084661
:103A8000604310BDC80FC018013810BD18B4044BF6
:103A90005B6AFC46019308BD24DF1D400010000056
:103AA000BC08002070B513231C78012C12D0012C07
:103AB00012DC214B214A93642148FFF773FC214B10
:103AC000186070BD1C491D4A9800815001331F2B9E
:103AD000F8D9ECE70023FAE71B48FFF76BFC050079
:103AE0001A48FFF767FC023803789B007F2B09DD3B
:103AF00012488022290000F0AFFB022C08D0022CD3
:103B0000DADCD6E7124B134A13483221FEF7F8F8F5
:103B1000124B1A88B5231B029A4209D1104B1A88FE
:103B2000104B9A4204D1104B1A88104B9A42E6D09F
:103B30000020FEF77DF9C046713B0010BC08002054
:103B40004C330000BC0900205344000053460000E1
:103B50005854001010550010B8540010543800008C
:103B6000D8380000494600009C3800005946000043
:103B700007B56046002800D100BE01880A0A02305D
:103B8000DF2AFAD1C9B2820804D30288408800042F
:103B9000104300E00068024A5050039007BD000047
:103BA000BC0800200FB403BC0CBCF0B50124E40732
:103BB000634000E0F0B50C0DCF0F661E3605891B83
:103BC000640503D3C943404200D30131640D03D0DF
:103BD000661CF60A07D0E41B00207F00791C8907C9
:103BE0008912803C24031D0DDF0F6E1E36059B1BC2
:103BF0006D0503D3DB43524200D301336D0D03D077
:103C00006E1CF60A07D0ED1B00227F007B1C9B0771
:103C10009B12803D2D032F1B661B58D4A446202EDB
:103C200046DA20371400BC401D00BD40F24033414D
:103C30002A4380185941CB0F05D0C943C043002205
:103C400064425041514162464D0D28D10D0D07D1BE
:103C500000281FD0241940414941013A0D0DF9D0E7
:103C6000640006D3013000D30131002C01D140089B
:103C70004000013A0BD4941CE40A04D1120511440B
:103C8000DB071944F0BDD907204B194300E0D907E1
:103C90000020F0BD0029DDD1002CDBD1F0BD0132C8
:103CA000C6074008CD0728434908002EE1D0D9E7D0
:103CB0003C2E29DA203E40371400BC4000D00124BD
:103CC000F24014431A00BB401C43D317ACE7AC4688
:103CD000202F08DA20360400B4400D00B540F8402B
:103CE00039412843A5E73C2F0CDA203F4036040039
:103CF000B44000D00124F84004430800B1400C4314
:103D0000C117EAE710001900002494E70000F07FD3
:103D1000F0B50C0D661E3605891BE60A6405640DB8
:103D200002D0651CED0A04D0002001210905803C69
:103D30002403A4461C0D671E3F05DB1BE70A640530
:103D4000640D02D0651CED0A04D0002201231B057E
:103D5000803C24037740644497B484B296B27443A1
:103D6000070C7E43150C6F4380B26843361802D3AC
:103D7000012000043F183004350C00197D418446B1
:103D800088B29AB250430C0C62431F0C7C438EB233
:103D90007E43921902D301263604A4191604170C87
:103DA0003618674101BC81B29AB25143040C624398
:103DB0001B0C5C4380B25843121802D3012000044C
:103DC00024181004130C401863412D185E41002084
:103DD000474106BC88B293B258430C0C6343120CA3
:103DE000544389B251435B1802D30121090464187A
:103DF00019041A0C091862416D18564100204741F8
:103E000018BCF902720D1143F0026A0D1043ED0265
:103E10000A0D03D16D1940414941013B124E9B1BD4
:103E20007600B3420ED26D0007D3013000267141F7
:103E30006646354301D1400840001B05C918E40718
:103E40002144F0BD0BDA013306D1013004D1013138
:103E50004F0D01D04908F2E7E1070020F0BD01361F
:103E600031050020EBE70000FF030000F0B51C0D5A
:103E7000671E3F05DB1BE70A6405640D02D0661C64
:103E8000F60A04D0002201231B05803C2403D02520
:103E90002D060026F6432E661E096E66CE0FF61915
:103EA000B44649004F0D02D07E1CF60A03D0002014
:103EB0000021403F3F033E1BB600B444013F7F0555
:103EC000C91B49082E6F013676089C02950D2543C3
:103ED0007543ED137543AD1301356D10F603761B75
:103EE0000CB4CC02450D2C43A2B2B3B25A43270CFA
:103EF0007B43350C6F43A4B26C431B1902D30124DE
:103F000024043F191C041D0CA4187D4124196D4183
:103F1000009A91B2ACB26143170C7C432B0C5F4307
:103F200092B25A43A41802D301221204BF182204E9
:103F3000230C52187B41019C6C431B19520ED90172
:103F40000A434401A01A81B2B2B2514303145A4346
:103F5000360C734387B27743D617D21900277E41B8
:103F600036049B191704160C7F185E417316ED1862
:103F7000F301002680337541A90F06D16400690A58
:103F8000E8055B0A184309D22FE0042294448033E9
:103F90007541A90AA8059B0A184326D34041494107
:103FA0002404009A019B0D005543641B4343E41A0B
:103FB00095B286B27543170C7E43030C5F4392B2F1
:103FC0005A43B61802D301221204BF183204330C2C
:103FD00052197B4152429C41002C02D400220130F4
:103FE00051414008CA071043490802B06246D7074A
:103FF0009210084BD218084B9A4203D21205891826
:10400000C919F0BD0020002A01DC3900F0BD0133E0
:104010001905F5E7FD030000FE070000002200B5CA
:10402000203200F004F8080000BD000000220B154B
:104030000AD410B5944600F031F81414013400DAB3
:104040000021CB17144C2047002000217047624408
:10405000343A0CD40C2A07DA0400914090405242C2
:104060002032D440214310BDD843D94310BD203263
:1040700007D40C469440524220321141D040204394
:1040800010BD0800C917203203D45242203210411B
:1040900010BD1800190010BD4F4000100A0DCC0FC4
:1040A000531E1B05C91A520503D3C943404200D30E
:1040B0000131520D03D0531CDB0A07D0121B002024
:1040C0006400611C89078912803A1203014BD21ADD
:1040D00070470000FF03000051434343C9188C465A
:1040E000110C83B24B4310B4040C614392B280B202
:1040F000504362431C041B0C001910BC59411304AB
:10410000120CC018514161447047000070B5132370
:104110001E782A48FFF74EF90500012E11D0012E16
:1041200009DDAB1E1B789B007F2B40DD24488022DD
:10413000290000F091F82348FFF734F9224B18606A
:1041400070BD1F485422290000F086F81F4B1A88C2
:104150001F4B9A421CD1A7239B011A881D4B9A42E0
:1041600016D11D4B1A881D4B9A4211D11C4B1A882F
:1041700094239B019A420BD11A4B1A881A4B9A42EC
:1041800006D11A4B1A681A4B9A4201D1152307E03F
:104190001848FDF74DFE184C094A99008C50013320
:1041A0001F2BF8D9144B064A1362D361B7E7134BA0
:1041B000134A14484221FDF7A3FDC04653460000B0
:1041C000C00900204C330000BC090020EE2900008B
:1041D000C40F0000C20D0000962B0000C0B5000007
:1041E000182B0000CC2A000010B50000FC2C0000A9
:1041F00051ED8764C04F0010094200102455001093
:10420000AC5500105855001007B56046002800D185
:1042100000BE01880A0A0230DF2AFAD1C9B2820838
:1042200004D3028840880004104300E00068024A7A
:104230005050039007BD0000C00900200148042130
:10424000014B184780020020C5330010014B1B684A
:104250001847000080020020014B5B6818470000EF
:104260008002002010B50300080011001B68984769
:1042700010BD0000F8B507000D001600437C002BB0
:1042800002D0002400200CE00368110028009847A9
:104290002DE03B7C10E03B68154802219847601CEC
:1042A0000134B44214DA002CF3DD2B19013B1B78E6
:1042B0000D3B5A425341DBB22A5D0A2AF0D1002B52
:1042C000EED1A042E7DA3B68211A28189847E2E7C6
:1042D000B04203DA3B68311A28189847002E06DDF1
:1042E000AD19013D2B780D3B5A4253413B74F8BD4B
:1042F0002056001070B505000368002B16D00C4B3B
:104300001C6805E0290004C92000FFF7B3FFE4683A
:10431000002C09D02368002BF9D0064B1B68002B1A
:10432000F0D0A342F3D1EDE700232B6070BDC0466F
:10433000840800208808002070B505000C000B6878
:10434000802B05D023685A1C2260E418257170BDAB
:104350000800FFF7CFFFF5E710B582B0D0231B06AA
:1043600000241C57074801A900F00AFA002806D1CA
:10437000019B9C4203D0034800F012FA012002B0D6
:1043800010BDC046C406002010B5024800F0E0F998
:1043900010BDC046C4060020F0B5CE46474680B5E5
:1043A00083B006000D0090461C00FFF7D5FF814644
:1043B0006B1C05D0002C08D0194F1A4B1C6807E065
:1043C000300000F01DF90500F4E7174FF5E7E46849
:1043D000002C17D02368002BF9D0144B1B68002B3E
:1043E00001D0A342F3D12A0031002000B847434650
:1043F000002BECD06B46D91D0A230B700122200044
:10440000B847E4E74B46002B07D16B1E9D41E8B24D
:1044100003B0C0BCB946B046F0BDFFF7B5FFF4E746
:1044200065420010840800207542001088080020B2
:1044300010B5064B1C6801E09847E468002C03D0D7
:104440006368002BF8D1F8E710BDC046840800204F
:1044500070B5050000F0D4F804000023012201002B
:104460002800FFF799FFFFF7E3FF200070BD000071
:1044700070B5A2B004000E00FFF76EFF05008422A5
:10448000002101A8FFF7E2FE09483300220001A93C
:10449000FEF770FF040001A8FFF72CFFFFF7C8FF2D
:1044A000002D02D1200022B070BDFFF76DFFF9E7AB
:1044B000394300100FB400B583B004A901C90191BC
:1044C000FFF7D6FF03B008BC04B01847F0B5D646D6
:1044D000474680B583B0824688460620FDF7C2FD78
:1044E0000700022400E02C00FE2C1CD801970026B7
:1044F000A51C2802424600230021FFF7EDFD0029FC
:1045000003D1B142EFD1B842EDD980256D00012D24
:104510000CD96E1E210071433800FEF797FF40450D
:1045200004D83500F3E780256D00F0E753461C61A1
:104530006B1E1B02524612685340FF2212021340A8
:104540008022520151460A4313602900614338001A
:10455000FEF77CFF03B0C0BCBA46B046F0BD000019
:1045600010B50400144B984222D080229202134BC3
:104570001A60134B1A60134B9B6810009843FAD1D2
:104580002000FFF7A3FF236807225340C8321A40D8
:1045900080235B0123431A602200243280239B0185
:1045A0001A43032111600434234302221A6010BD10
:1045B00080225202DBE7C04600C0034000E000401A
:1045C00000F0004000C0004010B5010000230022B0
:1045D000002000F043F810BD70B5074D074C641B78
:1045E000A41005D0013CA300EB589847002CF9D14A
:1045F00000F0ACF870BDC046E4060020E4060020E0
:1046000010B583070AD00300032102E001330B42F7
:1046100005D01A78002AF9D1181A10BD03001968BC
:104620000C4A0D4C8A188A4322420FD15968094A14
:1046300004338A188A43224208D15968054A043350
:104640008A188A432242F1D000E001331A78002A06
:10465000FBD1E1E7FFFEFEFE80808080F0B5D6460C
:104660004F464646C0B5274F82B00600386891468F
:1046700098468A4600F060F8234B1B680193A423F8
:10468000019A5B00D558002D31D06C6838681F2C1A
:1046900032DC002E0ED1631C6B6053460234A40042
:1046A000635100F051F8002002B0E0BCBA46B146B8
:1046B000A846F0BD88224946A300EB189950C421B2
:1046C00049008C46AC446146873AA2406746096877
:1046D000114339608421474649005F50022EDAD1E8
:1046E0002B008D33FF3319680A431A60D3E7150096
:1046F0004D35FF35D550C8E700F026F8012040427F
:10470000D2E7C046C006002024560010034B10B567
:10471000002B02D00248FFF757FF10BD0000000039
:10472000D94500107047C0467047C0467047C04624
:104730007047C0467047C0467047C046012070476A
:10474000012070477047C0467047C046F8B5C04664
:1047500001B40248844601BC604700BF51010020FB
:1047600001B40248844601BC604700BFD901002063
:1047700001B40248844601BC604700BFD901002053
:1047800001B40248844601BC604700BF0901002013
:1047900001B40248844601BC604700BF9D0100206F
:1047A00001B40248844601BC604700BFC10000203C
:1047B0000F0000000E0000000FF00FF00FF00FF0E0
:1047C0000FF00FF00FF00FF00FF00FF00FF00FF0F1
:1047D0000FF00FF00FF00FF00FF00FF00F0F0F0FA3
:1047E0000F0F0F0F0F0F0F0F0F0F0F0F0F0F0F0FD9
:1047F0000F0F0F0F0F0F0F0F0F0F0F0F0F0F0F0FC9
:10480000FF00FF00FF00FF00FF00FF00FF00FF00B0
:10481000FF00FF00FF00FF00FF00FF00FF00FF00A0
:10482000FF00FF0030783163203D3D20282A696E6B
:104830007374293E3E31317500000000433A2F5514
:10484000736572732F74726175742F4465736B7422
:104850006F702F7270692D7069636F2F7069636F4D
:104860002D73646B2F7372632F7270325F636F6D81
:104870006D6F6E2F68617264776172655F697271C6
:104880002F6972712E63000064656C7461203E3D77
:10489000202D323034382026262064656C74612047
:1048A0003C3D203230343620262620212864656C99
:1048B0007461202620312900212864656C746120F0
:1048C0003E3E20313175290063757272656E742029
:1048D0003D3D205F5F756E68616E646C65645F75F9
:1048E0007365725F697271207C7C2063757272657A
:1048F0006E74203D3D2068616E646C65720000003E
:1049000021657863657074696F6E207C7C206578A2
:1049100063657074696F6E203D3D206E756D202B50
:104920002031360066616C736500000069735F7347
:1049300068617265645F6972715F7261775F6861F7
:104940006E646C657228736C6F745F68616E646C02
:1049500065722900657863657074696F6E00000088
:10496000666F756E640000006972715F6164645FF8
:104970007461696C5F746F5F667265655F6C6973A3
:1049800074000000696E736572745F6272616E63B9
:10499000685F616E645F6C696E6B00006972715F65
:1049A00072656D6F76655F68616E646C657200003C
:1049B0006D616B655F6272616E6368007265736FD3
:1049C0006C76655F6272616E636800006972715F28
:1049D0007365745F6578636C75736976655F68612C
:1049E0006E646C657200000069642026262069648C
:1049F000203C3D20706F6F6C2D3E686561702D3ED0
:104A00006D61785F6E6F646573000000433A2F55E7
:104A1000736572732F74726175742F4465736B7450
:104A20006F702F7270692D7069636F2F7069636F7B
:104A30002D73646B2F7372632F636F6D6D6F6E2FA9
:104A40007069636F5F74696D652F74696D652E633E
:104A50000000000075735F73696E63655F626F6F5E
:104A600074203C3D20494E5436345F4D415800007F
:104A7000433A2F55736572732F74726175742F44A6
:104A800065736B746F702F7270692D7069636F2F0F
:104A90007069636F2D73646B2F7372632F636F6D17
:104AA0006D6F6E2F7069636F5F626173652F696EE2
:104AB000636C7564652F7069636F2F7479706573AB
:104AC0002E6800006964202626206964203C3D2071
:104AD000686561702D3E6D61785F6E6F646573000F
:104AE000433A2F55736572732F74726175742F4436
:104AF00065736B746F702F7270692D7069636F2F9F
:104B00007069636F2D73646B2F7372632F636F6DA6
:104B10006D6F6E2F7069636F5F7574696C2F696E4E
:104B2000636C7564652F7069636F2F7574696C2F82
:104B300070686561702E6800706172656E745F697F
:104B4000640000006368696C645F696400000000D1
:104B5000706172656E745F696420213D20636869CD
:104B60006C645F6964000000696400006964202669
:104B700026202170685F636F6E7461696E735F6E6B
:104B80006F646528686561702C20696429000000E5
:104B90002170685F636F6E7461696E735F6E6F64BE
:104BA0006528706F6F6C2D3E686561702C20726592
:104BB0007573655F6964290072656D6F7665645F02
:104BC0006964203D3D206E6578745F696400000073
:104BD00063616C6C6261636B00000000706F6F6CEE
:104BE0002D3E616C61726D5F696E5F70726F67728E
:104BF000657373203D3D206D616B655F7075626C00
:104C000069635F69642869645F686967682C206EFE
:104C10006578745F6964290064656661756C745FAA
:104C2000616C61726D5F706F6F6C5F696E697469E2
:104C3000616C697A6564282900000000417474651C
:104C40006D7074656420746F20736C656570206985
:104C50006E73696465206F6620616E206578636598
:104C60007074696F6E2068616E646C65723B20754C
:104C7000736520627573795F776169742069662056
:104C8000796F75206D75737400000000616C61723E
:104C90006D5F706F6F6C5F6765745F64656661758B
:104CA0006C7400006765745F656E7472795F696427
:104CB0005F6869676800000070685F667265655FBD
:104CC0006E6F64650000000070685F6164645F631C
:104CD00068696C645F6E6F646500000070685F698E
:104CE0006E736572745F6E6F6465000070685F67F5
:104CF00065745F6E6F6465006164645F616C6172AE
:104D00006D5F756E6465725F6C6F636B00000000B1
:104D10007570646174655F75735F73696E63655FF9
:104D2000626F6F7400000000616C61726D5F706F84
:104D30006F6C5F616C61726D5F63616C6C6261630B
:104D40006B0000006765745F656E74727900000027
:104D5000486172647761726520616C61726D2025B3
:104D60006420616C726561647920636C61696D6552
:104D70006400000074696D65725F68772D3E696E2E
:104D800074732026203175203C3C20616C61726D6B
:104D90005F6E756D00000000433A2F5573657273A6
:104DA0002F74726175742F4465736B746F702F72FA
:104DB00070692D7069636F2F7069636F2D73646BF9
:104DC0002F7372632F7270325F636F6D6D6F6E2F12
:104DD00068617264776172655F74696D65722F7462
:104DE000696D65722E630000686172647761726537
:104DF0005F616C61726D5F7365745F74617267652A
:104E000074000000726F6F745F696400433A2F553D
:104E1000736572732F74726175742F4465736B744C
:104E20006F702F7270692D7069636F2F7069636F77
:104E30002D73646B2F7372632F636F6D6D6F6E2FA5
:104E40007069636F5F7574696C2F70686561702E2F
:104E5000630000002170685F6765745F6E6F646552
:104E600028686561702C20726F6F745F6964292DEA
:104E70003E7369626C696E67000000002170685FB4
:104E80006765745F6E6F646528686561702C207259
:104E90006F6F745F6964292D3E706172656E740076
:104EA0006E65775F7375625F7472656520213D2062
:104EB000686561702D3E726F6F745F6964000000F9
:104EC00070685F72656D6F76655F616E645F667254
:104ED00065655F6E6F64650070685F72656D6F76A3
:104EE000655F616E795F68656164000070685F612D
:104EF00064645F6368696C645F6E6F646500000082
:104F000070685F6765745F6E6F646500746F74616D
:104F10006C000000433A2F55736572732F747261F1
:104F200075742F4465736B746F702F7270692D7078
:104F300069636F2F7069636F2D73646B2F73726376
:104F40002F636F6D6D6F6E2F7069636F5F73796E16
:104F5000632F6D757465782E630000006D74782D75
:104F60003E636F72652E7370696E5F6C6F636B006A
:104F70006C6F636B5F69735F6F776E65725F696497
:104F80005F76616C6964286D74782D3E6F776E650D
:104F9000722900006D74782D3E656E7465725F63D2
:104FA0006F756E74000000006D757465785F6578CC
:104FB000697400002C2066756E6374696F6E3A2008
:104FC00000000000617373657274696F6E202225A2
:104FD0007322206661696C65643A2066696C65209D
:104FE000222573222C206C696E652025642573258B
:104FF000730A000031203D3D202875696E7470747D
:10500000725F74296C2D3E7370696E5F6C6F636B99
:1050100000000000433A2F55736572732F7472615C
:1050200075742F4465736B746F702F7270692D7077
:1050300069636F2F7069636F2D73646B2F73726375
:105040002F7270325F636F6D6D6F6E2F7069636F5B
:105050005F72756E74696D652F72756E74696D65BA
:105060002E6300000A2A2A2A2050414E4943202A52
:105070002A2A0A000A00000072756E74696D655F65
:10508000696E6974000000007372635F6672657117
:10509000203E3D206672657100000000433A2F55A6
:1050A000736572732F74726175742F4465736B74BA
:1050B0006F702F7270692D7069636F2F7069636FE5
:1050C0002D73646B2F7372632F7270325F636F6D19
:1050D0006D6F6E2F68617264776172655F636C6F6C
:1050E000636B732F636C6F636B732E630000000040
:1050F000636C6F636B5F636F6E6669677572650083
:1051000076636F5F66726571203E3D20285049438B
:105110004F5F504C4C5F56434F5F4D494E5F465278
:1051200045515F4D485A202A204D485A29202626AD
:105130002076636F5F66726571203C3D2028504980
:10514000434F5F504C4C5F56434F5F4D41585F4655
:105150005245515F4D485A202A204D485A29000097
:10516000433A2F55736572732F74726175742F44AF
:1051700065736B746F702F7270692D7069636F2F18
:105180007069636F2D73646B2F7372632F7270324B
:105190005F636F6D6D6F6E2F6861726477617265AA
:1051A0005F706C6C2F706C6C2E63000066626469BB
:1051B00076203E3D203136202626206662646976C0
:1051C000203C3D203332300028706F73745F646977
:1051D0007631203E3D203120262620706F73745F8B
:1051E00064697631203C3D2037292026262028700E
:1051F0006F73745F64697632203E3D20312026262D
:1052000020706F73745F64697632203C3D203729CB
:1052100000000000706F73745F64697632203C3D5B
:1052200020706F73745F6469763100007265665F29
:105230006D687A203C3D202876636F5F66726571E9
:10524000202F203136290000706C6C5F696E697404
:1052500000000000666E692B00000000666E6900A9
:105260006E616E00666E692D00000000862D0010D4
:105270009E2D00109E2D0010922D00109E2D0010CE
:105280009E2D00109E2D00109E2D00109E2D0010B2
:105290009E2D00109E2D00107A2D00109E2D0010C6
:1052A0006E2D00109E2D00109E2D0010622D0010FE
:1052B0006E2E0010942E0010B22E0010942E0010AE
:1052C0004E2E0010942E0010942E0010942E0010DC
:1052D000942E0010942E0010942E0010942E001086
:1052E0008A2E0010942E0010942E0010942E001080
:1052F000942E0010942E0010BE2E00102C3300109F
:10530000EE2E0010EE2E0010EE2E0010EE2E0010ED
:10531000EE2E0010EE2E0010EE2E0010EE2E0010DD
:10532000EE2E0010EE2E0010EE2E0010EE2E0010CD
:10533000EE2E0010EE2E0010EE2E0010EE2E0010BD
:10534000EE2E0010EE2E0010EE2E0010EE2E0010AD
:10535000EE2E0010EE2E0010EE2E0010EE2E00109D
:10536000EE2E0010EE2E0010EE2E0010EE2E00108D
:10537000EE2E0010EE2E0010EE2E00105831001010
:105380001A31001058310010EE2E0010EE2E0010D1
:10539000EE2E0010EE2E0010EE2E0010EE2E00105D
:1053A000EE2E0010EE2E0010EE2E0010EE2E00104D
:1053B000EE2E0010EE2E0010EE2E0010EE2E00103D
:1053C000EE2E0010EE2E0010022F0010EE2E001018
:1053D000EE2E0010EE2E0010EE2E0010EE2E00101D
:1053E000EE2E0010EE2E0010EE2E0010EE2E00100D
:1053F000022F0010A6310010022F001058310010AB
:105400001A31001058310010000000000000F03F79
:10541000000000000000244000000000000059408F
:105420000000000000408F40000000000088C340E2
:1054300000000000006AF8400000000080842E4157
:1054400000000000D01263410000000084D79741A3
:105450000000000065CDCD412A282875696E74389A
:105460005F74202A29282828766F6964202A2972E7
:105470006F6D5F646174615F6C6F6F6B75702872C4
:105480006F6D5F7461626C655F636F64652827533D
:10549000272C202746272929292D322929202A206F
:1054A00034203E3D2053465F5441424C455F5632C6
:1054B0005F53495A45000000433A2F557365727394
:1054C0002F74726175742F4465736B746F702F72D3
:1054D00070692D7069636F2F7069636F2D73646BD2
:1054E0002F7372632F7270325F636F6D6D6F6E2FEB
:1054F0007069636F5F646F75626C652F646F75624E
:105500006C655F696E69745F726F6D2E6300000079
:105510005F5F61656162695F646F75626C655F6939
:105520006E6974002A282875696E74385F74202AA1
:105530002928726F6D5F7461626C652D3229292094
:105540002A2034203E3D2053465F5441424C455F63
:1055500056325F53495A4500433A2F55736572736B
:105560002F74726175742F4465736B746F702F7232
:1055700070692D7069636F2F7069636F2D73646B31
:105580002F7372632F7270325F636F6D6D6F6E2F4A
:105590007069636F5F666C6F61742F666C6F6174A6
:1055A0005F696E69745F726F6D2E63005F5F616526
:1055B0006162695F666C6F61745F696E6974000037
:1055C0004465627567000000626F6F74325F773206
:1055D0003571303830000000312E342E300000009C
:1055E0007069636F00000000746573740000000050
:1055F000446563203234203230323200060052508B
:10560000D3F07542C055001006005250E182887FE9
:10561000C855001006005250BBFF3CB6E0550010C4
:085620000D0A000098020020B1
:10562800FC55001008560010900200101456001087
:0C5638009C020010A8020010B402001038
:1056440010B5D0231B0600241C570268EFF3108109
:1056540072B61368002BFCD0BFF35F8F0423C356CC
:10566400002B08DB0368BFF35F8F00221A6081F30D
:10567400108820BFE9E704710368BFF35F8F00223D
:105684001A6081F3108810BD03000068EFF3108CDA
:1056940072B60268002AFCD0BFF35F8F04229A56C8
:1056A400002A0BDB002910D00A6000201B68BFF31E
:1056B4005F8F00221A608CF310887047D022120684
:1056C400127852B21A710120F0E70020EEE70000D0
:1056D40010B50268EFF3108172B61368002BFCD08A
:1056E400BFF35F8F0423C356002B0ADBFF23037130
:1056F4000368BFF35F8F00221A6081F3108840BFF4
:1057040010BD034B034A0448A92100F029F8C04600
:10571400704F0010A84F0010144F001010B5040073
:105724001000002205E0E3689B07FCD58B5CA360B6
:1057340001328242F7D300E0A368E3685B07FBD43D
:10574400E368DB06FCD400E0A368E3685B07FBD4F2
:105754000123236210BD00007047C0460000000012
:1057640001B40248844601BC604700BF011D00101B
:105774001000000000000000000001000000000014
:105784000000000000000200000000000000000013
:105794000000030000000000000000000000FF0003
:1057A4000000000000B5486801318E46004770468D
:1057B40009380149884700BDA90D00105402002092
:1057C40000000000E806002044080020000000005B
:1057D4000000000054080020000000000000000049
:1057E40010000000000000000000000000000000A5
:1057F400503300004C330000543300005233000097
:105804004D5300004D430000533400004334000066
:105814009802002000000000000000008405002021
:10582400EC050020540600200000000000000000E9
:105834000000000000000000000000000000000064
:105844000000000000000000000000000000000054
:105854000000000000000000000000000000000044
:105864000000000000000000000000000000000034
:105874000000000000000000000000000000000024
:105884000000000000000000000000000000000014
:105894000000000000000000000000000000000004
:1058A40000000000000000000000000000000000F4
:1058B40000000000000000000000000000000000E4
:1058C40001000000000000000E33CDAB34126DE681
:1058D400ECDE05000B0000000000000000000000EA
:1058E40000000000000000000000000000000000B4
:1058F40000000000000000000000000000000000A4
:105904000000000000000000000000000000000093
:105914000000000000000000000000000000000083
:105C44000008002000000000000000003D42001099
:105C540095330010A53A00100D4100100D470010B7
:045C6400C502001065
:04000005100001E9FD
:00000001FF
